{
  "contractName": "ForwarderFactory",
  "abi": [
    {
      "anonymous": false,
      "inputs": [
        {
          "indexed": false,
          "internalType": "address",
          "name": "forwarderAddress",
          "type": "address"
        },
        {
          "indexed": false,
          "internalType": "address",
          "name": "poolAddress",
          "type": "address"
        }
      ],
      "name": "ForwarderCreated",
      "type": "event"
    },
    {
      "inputs": [
        {
          "internalType": "uint256",
          "name": "",
          "type": "uint256"
        }
      ],
      "name": "forwarders",
      "outputs": [
        {
          "internalType": "contract Forwarder",
          "name": "",
          "type": "address"
        }
      ],
      "stateMutability": "view",
      "type": "function",
      "constant": true
    },
    {
      "inputs": [
        {
          "internalType": "address payable",
          "name": "_pool",
          "type": "address"
        }
      ],
      "name": "createForwarder",
      "outputs": [
        {
          "internalType": "address",
          "name": "",
          "type": "address"
        }
      ],
      "stateMutability": "nonpayable",
      "type": "function"
    },
    {
      "inputs": [],
      "name": "getForwardersCount",
      "outputs": [
        {
          "internalType": "uint256",
          "name": "",
          "type": "uint256"
        }
      ],
      "stateMutability": "view",
      "type": "function",
      "constant": true
    },
    {
      "inputs": [
        {
          "internalType": "uint256",
          "name": "index",
          "type": "uint256"
        }
      ],
      "name": "getForwarder",
      "outputs": [
        {
          "internalType": "contract Forwarder",
          "name": "",
          "type": "address"
        }
      ],
      "stateMutability": "view",
      "type": "function",
      "constant": true
    }
  ],
  "bytecode": "0x608060405234801561000f575f80fd5b50610b7f8061001d5f395ff3fe608060405234801561000f575f80fd5b506004361061004a575f3560e01c8063657758f21461004e57806379ea99431461006c5780639193ba0b1461009c578063f7c860d7146100cc575b5f80fd5b6100566100fc565b60405161006391906102c5565b60405180910390f35b6100866004803603810190610081919061030c565b610107565b60405161009391906103b1565b60405180910390f35b6100b660048036038101906100b19190610405565b610190565b6040516100c39190610450565b60405180910390f35b6100e660048036038101906100e1919061030c565b610266565b6040516100f391906103b1565b60405180910390f35b5f8080549050905090565b5f8080549050821061014e576040517f08c379a0000000000000000000000000000000000000000000000000000000008152600401610145906104c3565b60405180910390fd5b5f8281548110610161576101606104e1565b5b905f5260205f20015f9054906101000a900473ffffffffffffffffffffffffffffffffffffffff169050919050565b5f808260405161019f906102a0565b6101a9919061051d565b604051809103905ff0801580156101c2573d5f803e3d5ffd5b5090505f81908060018154018082558091505060019003905f5260205f20015f9091909190916101000a81548173ffffffffffffffffffffffffffffffffffffffff021916908373ffffffffffffffffffffffffffffffffffffffff1602179055507fa35ea2cc726861482a50a162c72aad60965cc64641d419cd4d675036238b52048184604051610255929190610567565b60405180910390a180915050919050565b5f8181548110610274575f80fd5b905f5260205f20015f915054906101000a900473ffffffffffffffffffffffffffffffffffffffff1681565b6105bb8061058f83390190565b5f819050919050565b6102bf816102ad565b82525050565b5f6020820190506102d85f8301846102b6565b92915050565b5f80fd5b6102eb816102ad565b81146102f5575f80fd5b50565b5f81359050610306816102e2565b92915050565b5f60208284031215610321576103206102de565b5b5f61032e848285016102f8565b91505092915050565b5f73ffffffffffffffffffffffffffffffffffffffff82169050919050565b5f819050919050565b5f61037961037461036f84610337565b610356565b610337565b9050919050565b5f61038a8261035f565b9050919050565b5f61039b82610380565b9050919050565b6103ab81610391565b82525050565b5f6020820190506103c45f8301846103a2565b92915050565b5f6103d482610337565b9050919050565b6103e4816103ca565b81146103ee575f80fd5b50565b5f813590506103ff816103db565b92915050565b5f6020828403121561041a576104196102de565b5b5f610427848285016103f1565b91505092915050565b5f61043a82610337565b9050919050565b61044a81610430565b82525050565b5f6020820190506104635f830184610441565b92915050565b5f82825260208201905092915050565b7f496e646578206f7574206f6620626f756e64732e0000000000000000000000005f82015250565b5f6104ad601483610469565b91506104b882610479565b602082019050919050565b5f6020820190508181035f8301526104da816104a1565b9050919050565b7f4e487b71000000000000000000000000000000000000000000000000000000005f52603260045260245ffd5b610517816103ca565b82525050565b5f6020820190506105305f83018461050e565b92915050565b5f6105408261035f565b9050919050565b5f61055182610536565b9050919050565b61056181610547565b82525050565b5f60408201905061057a5f830185610441565b6105876020830184610558565b939250505056fe60a060405234801561000f575f80fd5b506040516105bb3803806105bb83398181016040528101906100319190610137565b5f73ffffffffffffffffffffffffffffffffffffffff168173ffffffffffffffffffffffffffffffffffffffff160361009f576040517f08c379a0000000000000000000000000000000000000000000000000000000008152600401610096906101bc565b60405180910390fd5b8073ffffffffffffffffffffffffffffffffffffffff1660808173ffffffffffffffffffffffffffffffffffffffff1681525050506101da565b5f80fd5b5f73ffffffffffffffffffffffffffffffffffffffff82169050919050565b5f610106826100dd565b9050919050565b610116816100fc565b8114610120575f80fd5b50565b5f815190506101318161010d565b92915050565b5f6020828403121561014c5761014b6100d9565b5b5f61015984828501610123565b91505092915050565b5f82825260208201905092915050565b7f506f6f6c20616464726573732063616e6e6f74206265207a65726f2e000000005f82015250565b5f6101a6601c83610162565b91506101b182610172565b602082019050919050565b5f6020820190508181035f8301526101d38161019a565b9050919050565b6080516103c36101f85f395f818160a901526101c101526103c35ff3fe608060405260043610610021575f3560e01c806316f0115b1461003a57610030565b366100305761002e610064565b005b610038610064565b005b348015610045575f80fd5b5061004e6101bf565b60405161005b9190610222565b60405180910390f35b5f34116100a6576040517f08c379a000000000000000000000000000000000000000000000000000000000815260040161009d90610295565b60405180910390fd5b5f7f000000000000000000000000000000000000000000000000000000000000000073ffffffffffffffffffffffffffffffffffffffff16346040516100eb906102e0565b5f6040518083038185875af1925050503d805f8114610125576040519150601f19603f3d011682016040523d82523d5f602084013e61012a565b606091505b505090508061016e576040517f08c379a00000000000000000000000000000000000000000000000000000000081526004016101659061033e565b60405180910390fd5b3373ffffffffffffffffffffffffffffffffffffffff167f6f1deddfc28100c291fae8f1064e4a91e844f0841993bb8fba9a913c3b801d80346040516101b49190610374565b60405180910390a250565b7f000000000000000000000000000000000000000000000000000000000000000081565b5f73ffffffffffffffffffffffffffffffffffffffff82169050919050565b5f61020c826101e3565b9050919050565b61021c81610202565b82525050565b5f6020820190506102355f830184610213565b92915050565b5f82825260208201905092915050565b7f4e6f2045544820746f20666f72776172642e00000000000000000000000000005f82015250565b5f61027f60128361023b565b915061028a8261024b565b602082019050919050565b5f6020820190508181035f8301526102ac81610273565b9050919050565b5f81905092915050565b50565b5f6102cb5f836102b3565b91506102d6826102bd565b5f82019050919050565b5f6102ea826102c0565b9150819050919050565b7f466f7277617264696e67206661696c65642e00000000000000000000000000005f82015250565b5f61032860128361023b565b9150610333826102f4565b602082019050919050565b5f6020820190508181035f8301526103558161031c565b9050919050565b5f819050919050565b61036e8161035c565b82525050565b5f6020820190506103875f830184610365565b9291505056fea2646970667358221220309df2c9f7d8ff2f8c804aac33e3ca10294330b79175b81fee3361bd2c2f21b364736f6c63430008150033a2646970667358221220bffa68af3b4533b7f49ad7e47f779f23bb279b8fa6c5d0f4898560374acb020e64736f6c63430008150033",
  "immutableReferences": {},
  "source": "// SPDX-License-Identifier: MIT\npragma solidity ^0.8.0;\n\nimport \"./Forwarder.sol\";\n\n/**\n * @title ForwarderFactory\n * @dev A factory contract to deploy multiple Forwarder contracts.\n */\ncontract ForwarderFactory {\n    // Array to keep track of all deployed Forwarder contracts\n    Forwarder[] public forwarders;\n\n    // Events\n    event ForwarderCreated(address forwarderAddress, address poolAddress);\n\n    /**\n     * @dev Deploys a new Forwarder contract with the specified pool address.\n     * @param _pool The address of the pool to which the Forwarder will send ETH.\n     * @return The address of the newly deployed Forwarder contract.\n     */\n    function createForwarder(address payable _pool) external returns (address) {\n        Forwarder forwarder = new Forwarder(_pool);\n        forwarders.push(forwarder);\n        emit ForwarderCreated(address(forwarder), _pool);\n        return address(forwarder);\n    }\n\n    /**\n     * @dev Returns the total number of Forwarder contracts deployed.\n     */\n    function getForwardersCount() external view returns (uint256) {\n        return forwarders.length;\n    }\n\n    /**\n     * @dev Retrieves a Forwarder contract by index.\n     * @param index The index in the forwarders array.\n     * @return The Forwarder contract at the specified index.\n     */\n    function getForwarder(uint256 index) external view returns (Forwarder) {\n        require(index < forwarders.length, \"Index out of bounds.\");\n        return forwarders[index];\n    }\n}\n",
  "sourcePath": "/home/luxeave/projects/evm-research/forwarder-truffle/contracts/ForwarderFactory.sol",
  "compiler": {
    "name": "solc",
    "version": "0.8.21+commit.d9974bed.Emscripten.clang"
  },
  "schemaVersion": "3.4.16",
  "updatedAt": "2024-09-23T07:43:23.845Z",
  "networkType": "ethereum",
  "devdoc": {
    "details": "A factory contract to deploy multiple Forwarder contracts.",
    "kind": "dev",
    "methods": {
      "createForwarder(address)": {
        "details": "Deploys a new Forwarder contract with the specified pool address.",
        "params": {
          "_pool": "The address of the pool to which the Forwarder will send ETH."
        },
        "returns": {
          "_0": "The address of the newly deployed Forwarder contract."
        }
      },
      "getForwarder(uint256)": {
        "details": "Retrieves a Forwarder contract by index.",
        "params": {
          "index": "The index in the forwarders array."
        },
        "returns": {
          "_0": "The Forwarder contract at the specified index."
        }
      },
      "getForwardersCount()": {
        "details": "Returns the total number of Forwarder contracts deployed."
      }
    },
    "title": "ForwarderFactory",
    "version": 1
  },
  "userdoc": {
    "kind": "user",
    "methods": {},
    "version": 1
  }
}