{
  "contractName": "Forwarder",
  "abi": [
    {
      "inputs": [
        {
          "internalType": "address payable",
          "name": "_pool",
          "type": "address"
        }
      ],
      "stateMutability": "nonpayable",
      "type": "constructor"
    },
    {
      "anonymous": false,
      "inputs": [
        {
          "indexed": true,
          "internalType": "address",
          "name": "sender",
          "type": "address"
        },
        {
          "indexed": false,
          "internalType": "uint256",
          "name": "amount",
          "type": "uint256"
        }
      ],
      "name": "Forwarded",
      "type": "event"
    },
    {
      "stateMutability": "payable",
      "type": "fallback"
    },
    {
      "inputs": [],
      "name": "pool",
      "outputs": [
        {
          "internalType": "address payable",
          "name": "",
          "type": "address"
        }
      ],
      "stateMutability": "view",
      "type": "function"
    },
    {
      "stateMutability": "payable",
      "type": "receive"
    }
  ],
  "bytecode": "0x60a060405234801561000f575f80fd5b506040516105bb3803806105bb83398181016040528101906100319190610137565b5f73ffffffffffffffffffffffffffffffffffffffff168173ffffffffffffffffffffffffffffffffffffffff160361009f576040517f08c379a0000000000000000000000000000000000000000000000000000000008152600401610096906101bc565b60405180910390fd5b8073ffffffffffffffffffffffffffffffffffffffff1660808173ffffffffffffffffffffffffffffffffffffffff1681525050506101da565b5f80fd5b5f73ffffffffffffffffffffffffffffffffffffffff82169050919050565b5f610106826100dd565b9050919050565b610116816100fc565b8114610120575f80fd5b50565b5f815190506101318161010d565b92915050565b5f6020828403121561014c5761014b6100d9565b5b5f61015984828501610123565b91505092915050565b5f82825260208201905092915050565b7f506f6f6c20616464726573732063616e6e6f74206265207a65726f2e000000005f82015250565b5f6101a6601c83610162565b91506101b182610172565b602082019050919050565b5f6020820190508181035f8301526101d38161019a565b9050919050565b6080516103c36101f85f395f818160a901526101c101526103c35ff3fe608060405260043610610021575f3560e01c806316f0115b1461003a57610030565b366100305761002e610064565b005b610038610064565b005b348015610045575f80fd5b5061004e6101bf565b60405161005b9190610222565b60405180910390f35b5f34116100a6576040517f08c379a000000000000000000000000000000000000000000000000000000000815260040161009d90610295565b60405180910390fd5b5f7f000000000000000000000000000000000000000000000000000000000000000073ffffffffffffffffffffffffffffffffffffffff16346040516100eb906102e0565b5f6040518083038185875af1925050503d805f8114610125576040519150601f19603f3d011682016040523d82523d5f602084013e61012a565b606091505b505090508061016e576040517f08c379a00000000000000000000000000000000000000000000000000000000081526004016101659061033e565b60405180910390fd5b3373ffffffffffffffffffffffffffffffffffffffff167f6f1deddfc28100c291fae8f1064e4a91e844f0841993bb8fba9a913c3b801d80346040516101b49190610374565b60405180910390a250565b7f000000000000000000000000000000000000000000000000000000000000000081565b5f73ffffffffffffffffffffffffffffffffffffffff82169050919050565b5f61020c826101e3565b9050919050565b61021c81610202565b82525050565b5f6020820190506102355f830184610213565b92915050565b5f82825260208201905092915050565b7f4e6f2045544820746f20666f72776172642e00000000000000000000000000005f82015250565b5f61027f60128361023b565b915061028a8261024b565b602082019050919050565b5f6020820190508181035f8301526102ac81610273565b9050919050565b5f81905092915050565b50565b5f6102cb5f836102b3565b91506102d6826102bd565b5f82019050919050565b5f6102ea826102c0565b9150819050919050565b7f466f7277617264696e67206661696c65642e00000000000000000000000000005f82015250565b5f61032860128361023b565b9150610333826102f4565b602082019050919050565b5f6020820190508181035f8301526103558161031c565b9050919050565b5f819050919050565b61036e8161035c565b82525050565b5f6020820190506103875f830184610365565b9291505056fea2646970667358221220309df2c9f7d8ff2f8c804aac33e3ca10294330b79175b81fee3361bd2c2f21b364736f6c63430008150033",
  "immutableReferences": {
    "4": [
      {
        "length": 32,
        "start": 169
      },
      {
        "length": 32,
        "start": 449
      }
    ]
  },
  "source": "// SPDX-License-Identifier: MIT\npragma solidity ^0.8.0;\n\n/**\n * @title Forwarder\n * @dev A contract that forwards any received ETH to a pre-configured pool address.\n */\ncontract Forwarder {\n    // The pool address to which all received ETH will be forwarded\n    address payable public immutable pool;\n\n    // Events\n    event Forwarded(address indexed sender, uint256 amount);\n\n    /**\n     * @dev Sets the pool address upon deployment.\n     * @param _pool The address of the pool to forward ETH to.\n     */\n    constructor(address payable _pool) {\n        require(_pool != address(0), \"Pool address cannot be zero.\");\n        pool = _pool;\n    }\n\n    /**\n     * @dev Fallback function to receive ETH and forward it to the pool.\n     * This function is called when the contract receives plain ETH transfers.\n     */\n    receive() external payable {\n        _forward();\n    }\n\n    /**\n     * @dev Fallback function to handle calls with data (if needed).\n     */\n    fallback() external payable {\n        _forward();\n    }\n\n    /**\n     * @dev Internal function to forward received ETH to the pool.\n     */\n    function _forward() internal {\n        require(msg.value > 0, \"No ETH to forward.\");\n\n        // Forward the ETH to the pool using call\n        (bool success, ) = pool.call{value: msg.value}(\"\");\n        require(success, \"Forwarding failed.\");\n\n        emit Forwarded(msg.sender, msg.value);\n    }\n}\n",
  "sourcePath": "/home/luxeave/projects/evm-research/forwarder-truffle/contracts/Forwarder.sol",
  "compiler": {
    "name": "solc",
    "version": "0.8.21+commit.d9974bed.Emscripten.clang"
  },
  "schemaVersion": "3.4.16",
  "updatedAt": "2024-09-23T07:43:23.847Z",
  "networkType": "ethereum",
  "devdoc": {
    "details": "A contract that forwards any received ETH to a pre-configured pool address.",
    "kind": "dev",
    "methods": {
      "constructor": {
        "details": "Sets the pool address upon deployment.",
        "params": {
          "_pool": "The address of the pool to forward ETH to."
        }
      }
    },
    "title": "Forwarder",
    "version": 1
  },
  "userdoc": {
    "kind": "user",
    "methods": {},
    "version": 1
  }
}